:020000040000FA
:04000000D2EF3AF011
:10759F0001000000019F0EF66E750EF76E000EF8DB
:1075AF006E00EE11F010EE05F00900F5CFEEFFE5DD
:1075BF0050E150FAE1000EF86E0001E7EF3AF000EB
:1075CF000E956E000E8C6E938E939CF19E81BEF382
:1075DF00EF3AF0F5EF3AF022EF3BF0820E0F6EDE4E
:1075EF000EE82EFED70F2EFCD7152A070E1518D82A
:1075FF00A404EF3BF006EF3BF022EF3BF0010E153A
:10760F006E22EF3BF049EC3BF0EEEF3AF06FEC3DC2
:10761F00F0EEEF3AF0FAEC3BF0EEEF3AF034EC3EEE
:10762F00F0EEEF3AF00DEC3FF0EEEF3AF0ABEC3C52
:10763F00F0EEEF3AF015500F6E106A1050000AD8A6
:10764F00B42CEF3BF0EEEF3AF00F50010AD8B40A2A
:10765F00EF3BF0030AD8B40EEF3BF0010AD8B41297
:10766F00EF3BF0070AD8B416EF3BF0010AD8B41A73
:10767F00EF3BF0030AD8B41EEF3BF0EEEF3AF00009
:10768F00EF00F0000E046E000E036E04BE59EF3BC8
:10769F00F0045009E1080E035CD8A059EF3BF05BF2
:1076AF00EF3BF05DEF3BF0F9EF3BF003C001F00172
:1076BF000E026E012A66EF3BF0D8900236012E645F
:1076CF00EF3BF002508C6E1104121013101410D8EF
:1076DF00A474EF3BF076EF3BF07FEF3BF0820E01AF
:1076EF006EDE0EE82EFED7012EFCD7CDEF3BF0025B
:1076FF000E1118121013101410D8A489EF3BF08B31
:10770F00EF3BF099EF3BF0020E026E040E016EBAE2
:10771F000EE82EFED7012EFCD7022EFAD700D0CDC1
:10772F00EF3BF0030E1118121013101410D8A4A36E
:10773F00EF3BF0A5EF3BF0B3EF3BF0030E026E080B
:10774F000E016E770EE82EFED7012EFCD7022EFA11
:10775F00D700F0CDEF3BF0040E11181210131014D8
:10776F0010D8A4BDEF3BF0BFEF3BF0CDEF3BF005E2
:10777F000E026E0F0E016EF10EE82EFED7012EFCDB
:10778F00D7022EFAD700F0CDEF3BF081BCD2EF3B02
:10779F00F0D4EF3BF0F5EF3BF0820E016EDE0EE81A
:1077AF002EFED7012EFCD7010E1126000E1222132A
:1077BF00221422050E1118121013101410D8A4EB56
:1077CF00EF3BF0EDEF3BF0F5EF3BF0010E116E00EC
:1077DF000E126E000E136E000E146E034A042A4D25
:1077EF00EF3BF01200000E046E000E036E04BE0A93
:1077FF00EF3CF0045009E1090E035CD8A00AEF3CFE
:10780F00F00CEF3CF00EEF3CF0AAEF3CF003C001A0
:10781F00F0010E026E012A17EF3CF0D890023601EC
:10782F002E15EF3CF002048C6E110412101310147D
:10783F0010D8A425EF3CF027EF3CF030EF3CF0825E
:10784F000E016EDE0EE82EFED7012EFCD77EEF3C2A
:10785F00F0020E1118121013101410D8A43AEF3CA6
:10786F00F03CEF3CF04AEF3CF0020E026E040E01CA
:10787F006EBA0EE82EFED7012EFCD7022EFAD700D5
:10788F00D07EEF3CF0030E1118121013101410D805
:10789F00A454EF3CF056EF3CF064EF3CF0030E02C3
:1078AF006E080E016E770EE82EFED7012EFCD70262
:1078BF002EFAD700F07EEF3CF0040E1118121013C1
:1078CF00101410D8A46EEF3CF070EF3CF07EEF3C3C
:1078DF00F0050E026E0F0E016EF10EE82EFED701AF
:1078EF002EFCD7022EFAD700F07EEF3CF081BC833E
:1078FF00EF3CF085EF3CF0A6EF3CF0820E016EDE20
:10790F000EE82EFED7012EFCD7010E1126000E1207
:10791F002213221422050E1118121013101410D84E
:10792F00A49CEF3CF09EEF3CF0A6EF3CF0010E1153
:10793F006E000E126E000E136E000E146E034A04CC
:10794F002AFEEF3BF01200000E086E000E076E00CD
:10795F000E066E020E056E08BEBFEF3CF008500912
:10796F00E1080E075CD8A0BFEF3CF0C1EF3CF0C3BD
:10797F00EF3CF06EEF3DF005C001F0010E026E011D
:10798F002ACCEF3CF0D8900236012ECAEF3CF0071C
:10799F00C003F0010E046E032AD8EF3CF0D8900418
:1079AF0036032ED6EF3CF0045002248C6E110412D5
:1079BF001013101410D8A4E7EF3CF0E9EF3CF0F2ED
:1079CF00EF3CF0820E016EDE0EE82EFED7012EFC8C
:1079DF00D740EF3DF0020E1118121013101410D8EB
:1079EF00A4FCEF3CF0FEEF3CF00CEF3DF0020E027A
:1079FF006E040E016EBA0EE82EFED7012EFCD702D2
:107A0F002EFAD700D040EF3DF0030E1118121013CD
:107A1F00101410D8A416EF3DF018EF3DF026EF3DEF
:107A2F00F0030E026E080E016E770EE82EFED701E0
:107A3F002EFCD7022EFAD700F040EF3DF0040E11C6
:107A4F0018121013101410D8A430EF3DF032EF3D80
:107A5F00F040EF3DF0050E026E0F0E016EF10EE8D5
:107A6F002EFED7012EFCD7022EFAD700F040EF3DA5
:107A7F00F081BC45EF3DF047EF3DF068EF3DF08200
:107A8F000E016EDE0EE82EFED7012EFCD7010E1171
:107A9F0026000E122213221422050E111812101393
:107AAF00101410D8A45EEF3DF060EF3DF068EF3D8D
:107ABF00F0010E116E000E126E000E136E000E14FA
:107ACF006E074A082A054A062AB3EF3CF012000057
:107ADF000E086E000E076E000E066E070E056E087E
:107AEF00BE83EF3DF0085009E1080E075CD8A08374
:107AFF00EF3DF085EF3DF087EF3DF033EF3EF005C2
:107B0F00C001F0010E026E012A90EF3DF0D89002F5
:107B1F0036012E8EEF3DF007C003F0010E046E0309
:107B2F002A9CEF3DF0D8900436032E9AEF3DF004D7
:107B3F005002248C6E1104121013101410D8A4AB21
:107B4F00EF3DF0ADEF3DF0B6EF3DF0820E016EDE92
:107B5F000EE82EFED7012EFCD704EF3EF0020E11D9
:107B6F0018121013101410D8A4C0EF3DF0C2EF3D3F
:107B7F00F0D0EF3DF0020E026E040E016EBA0EE869
:107B8F002EFED7012EFCD7022EFAD700D004EF3EDF
:107B9F00F0030E1118121013101410D8A4DAEF3DC1
:107BAF00F0DCEF3DF0EAEF3DF0030E026E080E0140
:107BBF006E770EE82EFED7012EFCD7022EFAD700D5
:107BCF00F004EF3EF0040E1118121013101410D819
:107BDF00A4F4EF3DF0F6EF3DF004EF3EF0050E029A
:107BEF006E0F0E016EF10EE82EFED7012EFCD7029E
:107BFF002EFAD700F004EF3EF081BC09EF3EF00BF8
:107C0F00EF3EF02CEF3EF0820E016EDE0EE82EFE00
:107C1F00D7012EFCD7010E1126000E1222132214AB
:107C2F0022050E1118121013101410D8A422EF3EB3
:107C3F00F024EF3EF02CEF3EF0010E116E000E120D
:107C4F006E000E136E000E146E074A082A0506D832
:107C5F00A0060677EF3DF01200000E076E000E062D
:107C6F006E000E096E000E086E000E056E000E04FB
:107C7F006E065008248C6E04C001F0010E026E00D7
:107C8F000E036E012A4FEF3EF0D8900236033601F5
:107C9F002E4CEF3EF00F0E0216000E03160250068A
:107CAF00260350072204500708016E010E026E00D2
:107CBF000E036E012A67EF3EF0D8900236033601AD
:107CCF002E64EF3EF0F00E0216000E03160250085F
:107CDF0026035009221104121013101410D8A47B7C
:107CEF00EF3EF07DEF3EF086EF3EF0820E016EDE4E
:107CFF000EE82EFED7012EFCD7D4EF3EF0020E1168
:107D0F0018121013101410D8A490EF3EF092EF3EFB
:107D1F00F0A0EF3EF0020E026E040E016EBA0EE8F6
:107D2F002EFED7012EFCD7022EFAD700D0D4EF3E6D
:107D3F00F0030E1118121013101410D8A4AAEF3E4E
:107D4F00F0ACEF3EF0BAEF3EF0030E026E080E01FC
:107D5F006E770EE82EFED7012EFCD7022EFAD70033
:107D6F00F0D4EF3EF0040E1118121013101410D8A7
:107D7F00A4C4EF3EF0C6EF3EF0D4EF3EF0050E0286
:107D8F006E0F0E016EF10EE82EFED7012EFCD702FC
:107D9F002EFAD700F0D4EF3EF081BCD9EF3EF0DBE6
:107DAF00EF3EF0FCEF3EF0820E016EDE0EE82EFE8F
:107DBF00D7012EFCD7010E1126000E12221322140A
:107DCF0022050E1118121013101410D8A4F2EF3E42
:107DDF00F0F4EF3EF0FCEF3EF0010E116E000E12CC
:107DEF006E000E136E000E146E044A052A05BE0AAD
:107DFF00EF3FF0055009E1050E045CD8A00AEF3FF4
:107E0F00F00CEF3FF040EF3EF01200000E0E6E0050
:107E1F000E0D6E000E0C6E020E0B6E0EBE21EF3F9E
:107E2F00F00E5009E1080E0D5CD8A021EF3FF023B2
:107E3F00EF3FF025EF3FF0FFEF3FF00DC001F004F3
:107E4F000E0126010E026E012A30EF3FF0D890028C
:107E5F0036012E2EEF3FF00DC003F0030E03260167
:107E6F000E046E032A3EEF3FF0D8900436032E3CEB
:107E7F00EF3FF00DC005F0020E0526010E066E0550
:107E8F002A4CEF3FF0D8900636052E4AEF3FF00D03
:107E9F00C007F0010E0726010E086E072A5AEF3FA2
:107EAF00F0D8900836072E58EF3FF00DC009F001BB
:107EBF000E0A6E092A66EF3FF0D8900A36092E6433
:107ECF00EF3FF00A5008240624042402248C6E117C
:107EDF0004121013101410D8A478EF3FF07AEF3F6C
:107EEF00F083EF3FF0820E016EDE0EE82EFED7011B
:107EFF002EFCD7D1EF3FF0020E11181210131014F1
:107F0F0010D8A48DEF3FF08FEF3FF09DEF3FF002C1
:107F1F000E026E040E016EBA0EE82EFED7012EFC75
:107F2F00D7022EFAD700D0D1EF3FF0030E1118125F
:107F3F001013101410D8A4A7EF3FF0A9EF3FF0B71C
:107F4F00EF3FF0030E026E080E016E770EE82EFE65
:107F5F00D7012EFCD7022EFAD700F0D1EF3FF00455
:107F6F000E1118121013101410D8A4C1EF3FF0C344
:107F7F00EF3FF0D1EF3FF0050E026E0F0E016EF1E5
:107F8F000EE82EFED7012EFCD7022EFAD700F0D125
:107F9F00EF3FF081BCD6EF3FF0D8EF3FF0F9EF3F66
:107FAF00F0820E016EDE0EE82EFED7012EFCD701F9
:107FBF000E1126000E122213221422050E11181272
:107FCF001013101410D8A4EFEF3FF0F1EF3FF0F9BA
:107FDF00EF3FF0010E116E000E126E000E136E00C9
:107FEF000E146E0D4A0E2A0B4A0C2A15EF3FF01293
:017FFF000081
:020000040020DA
:08000000FFFFFFFFFFFFFFFF00
:020000040030CA
:0E00000000091F1EFF8181FF0FC00FE00F409F
:00000001FF
